{
  "contractName": "DigitalID",
  "abi": [
    {
      "anonymous": false,
      "inputs": [
        {
          "indexed": false,
          "internalType": "address",
          "name": "user",
          "type": "address"
        },
        {
          "indexed": false,
          "internalType": "string",
          "name": "idHash",
          "type": "string"
        },
        {
          "indexed": false,
          "internalType": "string",
          "name": "evidence",
          "type": "string"
        }
      ],
      "name": "IDCreated",
      "type": "event"
    },
    {
      "inputs": [
        {
          "internalType": "address",
          "name": "",
          "type": "address"
        }
      ],
      "name": "users",
      "outputs": [
        {
          "internalType": "string",
          "name": "idHash",
          "type": "string"
        },
        {
          "internalType": "string",
          "name": "evidence",
          "type": "string"
        }
      ],
      "stateMutability": "view",
      "type": "function"
    },
    {
      "inputs": [
        {
          "internalType": "string",
          "name": "_idHash",
          "type": "string"
        },
        {
          "internalType": "string",
          "name": "_evidence",
          "type": "string"
        }
      ],
      "name": "createID",
      "outputs": [],
      "stateMutability": "nonpayable",
      "type": "function"
    },
    {
      "inputs": [
        {
          "internalType": "address",
          "name": "_user",
          "type": "address"
        }
      ],
      "name": "getID",
      "outputs": [
        {
          "internalType": "string",
          "name": "",
          "type": "string"
        },
        {
          "internalType": "string",
          "name": "",
          "type": "string"
        }
      ],
      "stateMutability": "view",
      "type": "function"
    }
  ],
  "bytecode": "0x608060405234801561000f575f80fd5b50610b6d8061001d5f395ff3fe608060405234801561000f575f80fd5b506004361061003f575f3560e01c806353be397f1461004357806399f826a51461005f578063a87430ba14610090575b5f80fd5b61005d60048036038101906100589190610601565b6100c1565b005b610079600480360381019061007491906106d1565b61020a565b604051610087929190610776565b60405180910390f35b6100aa60048036038101906100a591906106d1565b610389565b6040516100b8929190610776565b60405180910390f35b5f805f3373ffffffffffffffffffffffffffffffffffffffff1673ffffffffffffffffffffffffffffffffffffffff1681526020019081526020015f205f01805461010b906107d8565b90501461014d576040517f08c379a000000000000000000000000000000000000000000000000000000000815260040161014490610852565b60405180910390fd5b6040518060400160405280838152602001828152505f803373ffffffffffffffffffffffffffffffffffffffff1673ffffffffffffffffffffffffffffffffffffffff1681526020019081526020015f205f820151815f0190816101b19190610a16565b5060208201518160010190816101c79190610a16565b509050507fed8e6defefb4673b48b1fe721623080669124c47a207910f9e2125e3974f9a473383836040516101fe93929190610af4565b60405180910390a15050565b6060805f805f8573ffffffffffffffffffffffffffffffffffffffff1673ffffffffffffffffffffffffffffffffffffffff1681526020019081526020015f206040518060400160405290815f82018054610264906107d8565b80601f0160208091040260200160405190810160405280929190818152602001828054610290906107d8565b80156102db5780601f106102b2576101008083540402835291602001916102db565b820191905f5260205f20905b8154815290600101906020018083116102be57829003601f168201915b505050505081526020016001820180546102f4906107d8565b80601f0160208091040260200160405190810160405280929190818152602001828054610320906107d8565b801561036b5780601f106103425761010080835404028352916020019161036b565b820191905f5260205f20905b81548152906001019060200180831161034e57829003601f168201915b5050505050815250509050805f015181602001519250925050915091565b5f602052805f5260405f205f91509050805f0180546103a7906107d8565b80601f01602080910402602001604051908101604052809291908181526020018280546103d3906107d8565b801561041e5780601f106103f55761010080835404028352916020019161041e565b820191905f5260205f20905b81548152906001019060200180831161040157829003601f168201915b505050505090806001018054610433906107d8565b80601f016020809104026020016040519081016040528092919081815260200182805461045f906107d8565b80156104aa5780601f10610481576101008083540402835291602001916104aa565b820191905f5260205f20905b81548152906001019060200180831161048d57829003601f168201915b5050505050905082565b5f604051905090565b5f80fd5b5f80fd5b5f80fd5b5f80fd5b5f601f19601f8301169050919050565b7f4e487b71000000000000000000000000000000000000000000000000000000005f52604160045260245ffd5b610513826104cd565b810181811067ffffffffffffffff82111715610532576105316104dd565b5b80604052505050565b5f6105446104b4565b9050610550828261050a565b919050565b5f67ffffffffffffffff82111561056f5761056e6104dd565b5b610578826104cd565b9050602081019050919050565b828183375f83830152505050565b5f6105a56105a084610555565b61053b565b9050828152602081018484840111156105c1576105c06104c9565b5b6105cc848285610585565b509392505050565b5f82601f8301126105e8576105e76104c5565b5b81356105f8848260208601610593565b91505092915050565b5f8060408385031215610617576106166104bd565b5b5f83013567ffffffffffffffff811115610634576106336104c1565b5b610640858286016105d4565b925050602083013567ffffffffffffffff811115610661576106606104c1565b5b61066d858286016105d4565b9150509250929050565b5f73ffffffffffffffffffffffffffffffffffffffff82169050919050565b5f6106a082610677565b9050919050565b6106b081610696565b81146106ba575f80fd5b50565b5f813590506106cb816106a7565b92915050565b5f602082840312156106e6576106e56104bd565b5b5f6106f3848285016106bd565b91505092915050565b5f81519050919050565b5f82825260208201905092915050565b5f5b83811015610733578082015181840152602081019050610718565b5f8484015250505050565b5f610748826106fc565b6107528185610706565b9350610762818560208601610716565b61076b816104cd565b840191505092915050565b5f6040820190508181035f83015261078e818561073e565b905081810360208301526107a2818461073e565b90509392505050565b7f4e487b71000000000000000000000000000000000000000000000000000000005f52602260045260245ffd5b5f60028204905060018216806107ef57607f821691505b602082108103610802576108016107ab565b5b50919050565b7f494420616c7265616479206578697374730000000000000000000000000000005f82015250565b5f61083c601183610706565b915061084782610808565b602082019050919050565b5f6020820190508181035f83015261086981610830565b9050919050565b5f819050815f5260205f209050919050565b5f6020601f8301049050919050565b5f82821b905092915050565b5f600883026108cc7fffffffffffffffffffffffffffffffffffffffffffffffffffffffffffffffff82610891565b6108d68683610891565b95508019841693508086168417925050509392505050565b5f819050919050565b5f819050919050565b5f61091a610915610910846108ee565b6108f7565b6108ee565b9050919050565b5f819050919050565b61093383610900565b61094761093f82610921565b84845461089d565b825550505050565b5f90565b61095b61094f565b61096681848461092a565b505050565b5b818110156109895761097e5f82610953565b60018101905061096c565b5050565b601f8211156109ce5761099f81610870565b6109a884610882565b810160208510156109b7578190505b6109cb6109c385610882565b83018261096b565b50505b505050565b5f82821c905092915050565b5f6109ee5f19846008026109d3565b1980831691505092915050565b5f610a0683836109df565b9150826002028217905092915050565b610a1f826106fc565b67ffffffffffffffff811115610a3857610a376104dd565b5b610a4282546107d8565b610a4d82828561098d565b5f60209050601f831160018114610a7e575f8415610a6c578287015190505b610a7685826109fb565b865550610add565b601f198416610a8c86610870565b5f5b82811015610ab357848901518255600182019150602085019450602081019050610a8e565b86831015610ad05784890151610acc601f8916826109df565b8355505b6001600288020188555050505b505050505050565b610aee81610696565b82525050565b5f606082019050610b075f830186610ae5565b8181036020830152610b19818561073e565b90508181036040830152610b2d818461073e565b905094935050505056fea2646970667358221220f90fcd966d76e32cd01b3f43da241a5aaea869107c9975c3a1860a380a20c07764736f6c63430008140033",
  "immutableReferences": {},
  "source": "// SPDX-License-Identifier: MIT\npragma solidity ^0.8.20;\n\ncontract DigitalID {\n    struct ID {\n        string idHash;\n        string evidence; // URL or IPFS hash of document/photo\n    }\n\n    mapping(address => ID) public users;\n\n    event IDCreated(address user, string idHash, string evidence);\n\n    function createID(string memory _idHash, string memory _evidence) public {\n        require(bytes(users[msg.sender].idHash).length == 0, \"ID already exists\");\n        users[msg.sender] = ID(_idHash, _evidence);\n        emit IDCreated(msg.sender, _idHash, _evidence);\n    }\n\n    function getID(address _user) public view returns (string memory, string memory) {\n        ID memory id = users[_user];\n        return (id.idHash, id.evidence);\n    }\n}\n",
  "sourcePath": "/home/sumit/smart-tourist-system/blockchain/contracts/DigitalID.sol",
  "compiler": {
    "name": "solc",
    "version": "0.8.20+commit.a1b79de6.Emscripten.clang"
  },
  "schemaVersion": "3.4.16",
  "updatedAt": "2025-09-08T10:56:47.139Z",
  "devdoc": {
    "kind": "dev",
    "methods": {},
    "version": 1
  },
  "userdoc": {
    "kind": "user",
    "methods": {},
    "version": 1
  }
}